:020000040800F2
:10000000F845022079020008D9460008A13E000800
:10001000D54600084D0C00083D5D000800000000BA
:10002000000000000000000000000000C101000806
:10003000B50D00080000000015020008E552000898
:10004000930200089302000893020008930200083C
:10005000930200089302000893020008930200082C
:10006000930200089302000893020008930200081C
:10007000930200089302000893020008930200080C
:1000800093020008930200089302000893020008FC
:1000900093020008930200089302000893020008EC
:1000A00093020008930200089302000893020008DC
:1000B00093020008930200089302000893020008CC
:1000C00093020008930200089302000893020008BC
:1000D00093020008055A00089302000893020008E2
:1000E000930200089302000893020008930200089C
:1000F000930200089302000893020008930200088C
:10010000930200089302000893020008930200087B
:10011000930200089302000893020008930200086B
:10012000930200089302000893020008930200085B
:1001300093020008450E000893020008930200088D
:10014000930200089302000893020008930200083B
:10015000930200089302000893020008930200082B
:10016000930200089302000893020008930200081B
:1001700093020008930200089302000800000000A8
:1001800093020008930200089302000893020008FB
:1001900093020008930200089302000893020008EB
:1001A000930200089302000893020008DFF80CD0C5
:1001B00000F008FC0048004721DF0008F845022055
:1001C0002A4B19680868B0E8F04F80F30988BFF33C
:1001D0006F8F4FF0000080F311887047000000001F
:1001E00006480068006880F3088862B661B6BFF30D
:1001F0004F8FBFF36F8F00DF00BF00BF08ED00E03F
:10020000DFF80C00016841F470010160704700BF25
:1002100088ED00E0EFF30980BFF36F8F134B1A688E
:100220001EF0100F08BF20ED108A20E9F04F10607B
:1002300008B44FF0500080F31188BFF34F8FBFF325
:100240006F8F18F0EBFC4FF0000080F3118808BCB2
:1002500019680868B0E8F04F1EF0100F08BFB0EC46
:10026000108A80F30988BFF36F8F70474000002029
:10027000EFF30580704700000648804706480047B6
:10028000FEE7FEE7FEE7FEE7FEE7FEE7FEE7FEE746
:10029000FEE7FEE709540008AD0100080649074AD9
:1002A0000868504343F23902104408604008704720
:1002B0000149086070470000D00100206D4EC64122
:1002C00040EA01039B0703D009E008C9121F08C0D8
:1002D000042AFAD203E011F8013B00F8013B521E58
:1002E000F9D27047D2B201E000F8012B491EFBD2CF
:1002F00070470022F6E710B513460A460446194631
:10030000FFF7F0FF204610BD30B505462A460B46E4
:1003100012F8010B13F8014B08B1A042F8D01CB140
:10032000002802D06D1CF1E7284630BDCAB2401E3D
:1003300010F8011F8A4202D00029F9D1002070472D
:10034000421C10F8011B0029FBD1801A704710B520
:10035000002200E0521C835C8C5CA34201D1002B84
:10036000F8D1D8B2E1B2401A10BD30B50446002031
:10037000034600E05B1C934203D2E05CCD5C401B73
:10038000F8D030BD30B505460020034600E05B1CC8
:10039000934205D2EC5CC85C201A01D1002CF6D146
:1003A00030BD2DE9F04791460F46804604460026B1
:1003B00014F8015B2DB100F055FA0068405DC007EC
:1003C000F6D12B2D02D02D2D18D0641E4A46394669
:1003D000204600F04BFA27B13968A14201D1C7F895
:1003E000008071054FF002040BD54042002803DD68
:1003F00005F0E6FC0460A007BDE8F08746F48066DF
:10040000E4E70028F8DA05F0DBFC04606FF0004058
:10041000F2E770B5064605F0D3FC046805460A22EB
:1004200000213046FFF7BDFF2C6070BD2DE9FE4F67
:10043000804681EA0300C00F0C46009021F0004185
:1004400023F00045B8EB0200A94105D24046214601
:1004500090461C460B46024623F00040104347D00E
:10046000270DC7F30A00C3F30A510290401A019006
:1004700040286BDAC3F3130040F4801B00989246C7
:1004800020B10023D2EB030A63EB0B0B0198594612
:10049000C0F14002504600F0B4F906460D46504601
:1004A0005946019A00F0CCF910EB08006141002494
:1004B00087EA115284EAE7731A4340D0009A62B384
:1004C000019A012A4FEA075215DC001B61EB020179
:1004D0004FF0004202EA0752CDE90042001C41F50C
:1004E000801132462B4600F01FFA03B0BDE8F08FB2
:1004F00040462146F9E7001B61EB0201001C41F573
:10050000801300185B412018A2F5001747EB030188
:1005100040EAD570B6196D4111E06D084FEA360614
:1005200045EAC0754FEA0752001B61EB0201001C4F
:1005300041F5801149084FEA300000195141324617
:100540002B4603B0BDE8F04F00F0DFB90098012260
:1005500040000023D0EB020263EBE07300982146D9
:100560004FEAE074B8EB000061EB0401E9E783F0C7
:1005700000435BE781F0004158E72DE9FE4F81EA37
:10058000030404F0004421F0004100944FF0000BFC
:1005900023F0004350EA01045ED052EA03045BD02A
:1005A000C3F30A54C1F30A552C44A4F2F334019462
:1005B000A0FB0254C1F3130141F48011C3F31303F0
:1005C00043F4801301FB024400FB034E840A970AA4
:1005D00044EA815447EA8357A4FB076802958D0AD1
:1005E00005FB07854FEA932C04FB0C542705029D5D
:1005F0004FEA065847EA1637B5EB08056EEB070CCD
:10060000870E920E47EA811742EA8312A7FB020186
:10061000B6EB0B0164EB00042B0D43EA0C335E18C0
:1006200044EB1C50DA465146E7FB0201C5F31304C4
:100630004FEA0B3343EA14534FEA0432019C43EA76
:100640000603A4F10C040294009CCDE900B400F070
:100650006BF903B0BDE8F08F00200146F9E72DE902
:10066000F04D81EA030404F0004B21F000451446EC
:100670004FF0000A23F0004150EA050220D054EA6E
:1006800001021DD0C5F30A570246C5F31303C1F397
:100690001300C1F30A5640F4801543F48013A7EB0E
:1006A0000608101BD64608F2FD3873EB050002D38E
:1006B00008F1010801E092185B41B8F1000F03DA7C
:1006C00000200146BDE8F08D00204FF48011064661
:1006D00084460EE0171B73EB050705D3121B63EB73
:1006E000050306434CEA010C49084FEA3000921812
:1006F0005B4150EA0107EDD152EA030012D082EAD1
:10070000040083EA0501084305D0101BAB4106D263
:100710000122002306E000224FF0004302E06FF0C8
:10072000010253101AEB06004CEB085110EB0A00C3
:1007300041EB0B01BDE8F04D00F0E7B870B5C1F337
:100740000A5201F000450024C1F3130140F2FF33C7
:1007500041F480119A4201DA002070BD40F2334327
:100760009A42A2F2334203DC524200F059F800E010
:1007700090402C43F1D0404270BD00F0004230F078
:1007800000400AD0C10D01F56071C0F3160042EAC5
:100790000151C208400711437047002001467047CD
:1007A0002DE9F05F0546002092469B4688460646A6
:1007B000814640241BE0284641464746224600F039
:1007C0002FF853465A46C01A914110D31146184685
:1007D000224600F016F82D1A67EB01084F46224614
:1007E0000120002100F00DF817EB00094E41201EFA
:1007F000A4F10104DFDC484631462A464346BDE801
:10080000F09F202A04DB203A00FA02F10020704712
:100810009140C2F1200320FA03F31943904070473E
:10082000202A04DB203A21FA02F00021704721FA45
:1008300002F3D040C2F120029140084319467047AC
:10084000202A06DBCB17203A41FA02F043EAE07394
:1008500006E041FA02F3D040C2F120029140084381
:10086000194670470048704780C801082DE9F05FBD
:1008700082460078002715468B460AF10104B946E6
:10088000302801D09DB113E014F8010B012778281E
:1008900003D0582801D045B10AE00DB1102D07D181
:1008A0000027102514F8010B02E0082500E00A25B6
:1008B0000026B0460EE005FB080005FB06F1012707
:1008C00001EB10461FFA80F8B6F5803F00D3B94619
:1008D00014F8010B294600F087F80028EBDABBF189
:1008E000000F05D00FB1641E00E05446CBF8004065
:1008F000B9F1000F06D005F063FA02210160C81EAD
:10090000BDE8F09F48EA0640FAE710B5141E73F1FF
:10091000000408DA401C41F1000192185B411A43BF
:1009200001D120F0010010BD2DE9F04D92469B460B
:1009300011B1B1FA81F202E0B0FA80F220329046B1
:10094000FFF75FFF04460F4640EA0A0041EA0B0149
:1009500053465A46084313D0114653EA010019D0B2
:10096000C8F140025046FFF75BFF05460E46504671
:1009700059464246FFF745FF084305D0012004E0F1
:1009800020463946BDE8F08D0020054346EAE07672
:100990002C4337430A986305E40AA0EB08000022C1
:1009A000FD0A44EA47540A3002D500200146E9E72F
:1009B000010510196941DDE9084500196941BDE8E3
:1009C000F04DA2E7064C074D06E0E06840F0010359
:1009D00094E8070098471034AC42F6D3FFF7EAFBDF
:1009E00024CC010844CC01083A2800D2303820F049
:1009F0002002412A01D3A2F13700884201D34FF0EF
:100A0000FF30704770B58C1810F8015B15F00703C4
:100A100001D110F8013B2A1106D110F8012B03E097
:100A200010F8016B01F8016B5B1EF9D12B0705D49F
:100A30000023521E0DD401F8013BFAE710F8013BE8
:100A4000CB1A921C03E013F8015B01F8015B521E04
:100A5000F9D5A142D8D3002070BD000010B5584987
:100A60004A6822F440324A604A6843681A434A603E
:100A70000268526822F4807203685A600268536800
:100A8000026943EA022203685A600268526822F04F
:100A9000407203685A600268526883681A430368A8
:100AA0005A600268926822F4006203689A600268E1
:100AB0009268C3681A4303689A60424B826A9A42FA
:100AC00018D00268926822F0706203689A60026827
:100AD0009268836A1A4303689A600268926822F0F7
:100AE000405203689A6002689268C36A1A430368B6
:100AF0009A600BE00268926822F0706203689A6064
:100B00000268926822F0405203689A600268926814
:100B100022F0020203689A6002689368826943EADD
:100B2000420203689A60026AD2B10268526842F4D3
:100B3000006203685A600268526822F460420368E7
:100B40005A6002685368426A521E4FF4604494FA35
:100B5000A4F4B4FA84F4A24013430268536005E09D
:100B60000268526822F4006203685A600268D26A1E
:100B700022F470020368DA620268D36A828B521E22
:100B800043EA02520368DA620268926822F4007251
:100B900003689A6002689368026B43EA4222036822
:100BA0009A600268926822F4806203689A60026820
:100BB0009368426943EA822203689A6010BD00008C
:100BC000002301400100000F1CB510480121002343
:100BD0004A02CDE900100EA1114818F0C1FC1148DD
:100BE000022100230A02CDE900100FA1114818F0DC
:100BF000B7FC1148032100234FF40072CDE9001027
:100C00000EA1114818F0ACFC1CBD00000000002033
:100C1000765461736B5461736B557365724946000A
:100C2000A98C010804000020765461736B4C656444
:100C300000000000918901080800002076546173CB
:100C40006B4D736750726F00158A010800BFFEE795
:100C50002DE9F04180460E4617461D4600243246D7
:100C600039461AA000F0E2FA804608F10100002897
:100C700028D000BF24E057F8240014A1FFF767FB39
:100C8000E0B955F8240012A1FFF761FB18B9002064
:100C90001149087012E055F8240010A1FFF757FB26
:100CA00018B902200C49087008E055F824000DA17D
:100CB000FFF74DFB10B9012007490870601CC4B252
:100CC000B442D8DB09A0BDE8F0810000736578006C
:100CD0006D616C65000000001000002066656D61AC
:100CE0006C650000666C6173680000002F636F6EB6
:100CF00074726F6C2E68746D6C0000000EB5264C1B
:100D000000BF26480078012804D002280DD005280D
:100D10003BD133E000206060A060E060204607F037
:100D200037F902201D49087030E0204607F062FACA
:100D300060B11B49606808601A49A06808601A49D8
:100D4000E068086003201549087016E0256AA87A53
:100D5000042812DD042011490870204607F0E2F94A
:100D6000124802906FF07F400190114800906B464E
:100D700001AA02A920460EF0CEFF07E0204607F0A8
:100D8000D1F900200549087000E000BF00BFFA203B
:100D900017F0D0FDB5E700008C0C00202C000020DF
:100DA000300000203400002038000020C0A8016975
:100DB000C0A801017047016801F58051896941F0BF
:100DC0000202016801F580518A617047016801F5EE
:100DD0008051896941F40052016801F580518A61AE
:100DE0007047000008B508490968C9084FF47A72CD
:100DF000B1FBF2F14143009100BF00BF00994A1ED0
:100E000000920029F9D108BD1C00002038B5044625
:100E100000200090206800F58050806940F4801127
:100E2000206800F580508161206800F5805080695D
:100E300000900120FFF7D6FF0099206800F5805050
:100E4000816138BD10B5024800F089FD10BD000079
:100E5000DC01002030B503461479557944EA0520B9
:100E6000084C0C442064D4782406957844EA054460
:100E7000557844EA0524157844EA0500014C0C44F1
:100E8000606430BD0080024070B5AEB004460E46CE
:100E9000002526B14FF40061E160C900A160002087
:100EA000119012901390149015901690E06918B953
:100EB0004FF48060179001E0002017904FF400700D
:100EC0001890002019901A901B901C901D904020A3
:100ED0001E9000201F90209021902290239024901B
:100EE00025902690802027900020289029902A90F5
:100EF0002B902C902D902068056871480540DDE905
:100F0000110108431399084314990843A168084341
:100F10001599084316990843E1680843179908434F
:100F200018990843199908431A9908431B990843CB
:100F300005432068056020680568012000F024FC56
:100F400020680560DDE91C0108431E9908431F99CC
:100F5000084320990843219908432299084323997B
:100F600008432168486020684568012000F00CFCB7
:100F70002068456024982168886025982168C860A9
:100F8000206885694FF641700540DDE9261040EA8A
:100F9000014028990843299908432A9908432B9925
:100FA000084305432068856120688569012000F0B9
:100FB000EBFB20688561DDE92C0108432168C861ED
:100FC0002068C569012000F0DFFB2068C5610020B2
:100FD00001904FF000700290002003904FF4001039
:100FE0000490002005900690079008900420099036
:100FF000C0050A9040120B9080010C9040120D9099
:1010000080200E9000200F901090206800F58050F6
:1010100085692C480540DDE901010843039908432F
:10102000049908430599084306990843079908431A
:1010300008990843099908430543206800F5805042
:101040008561206800F580508569012000F09CFBD7
:10105000206800F580508561DDE90A0108430C999C
:1010600008430D9908430E9908430F9940EA8100FF
:101070001099084340F40001206800F58050016099
:10108000206800F580500568012000F07DFB206895
:1010900000F580500560A069012809D1206800F59D
:1010A0008050C06908490843216801F58051C86132
:1010B000002120466269FFF7CDFE2EB070BD000012
:1010C0000F8120FF233FDEF84000010038B50446C1
:1010D000002000902068006840F00400216808604B
:1010E0002068006800900120FFF77CFE00982168CE
:1010F000086038BD38B504460020009020680068BC
:1011000040F0080021680860206800680090012015
:10111000FFF768FE00982168086038BD30B50246C8
:10112000002300240868012816D013686FF30E030B
:10113000D1E901052843CD6828430D6928434D694D
:1011400028438D692843CD6928430D6A28434D6A99
:1011500028430343136019E0136823F4F843D1E9EB
:10116000070528434D6A2843034354686FF30E0470
:10117000D1E901052843CD6828430D6928434D690D
:1011800028438D692843044313605460002030BD18
:1011900070B50346154600220024012D1FD09A6821
:1011A00002F070420868401E4E68761E40EA06163D
:1011B0008868401E46EA0026C868401E46EA003697
:1011C000088A401E46EA0046888A401E46EA0056C3
:1011D000087E401E46EA006002439A6022E09A6858
:1011E00011480240C868401E0603888A401E46EA2D
:1011F00000500243DC6804F070440868401E4E68EA
:10120000761E40EA06168868401E46EA0026088ACE
:10121000401E46EA0046087E401E46EA006004433F
:101220009A60DC60002070BDFF0F0FFF2DE9F041D8
:1012300007460D461646002409E055F824103846A6
:10124000FFF785F810B92046BDE8F081641CB44270
:10125000F3DB4FF0FF30F7E71FB5044600940120A1
:10126000019007200290002003906946074800F093
:1012700083F8064800F0F4F90A21044800F092F9D6
:10128000024800F043F980B204B010BD0C08002001
:101290002DE9F04107460C460025002608E03846B7
:1012A000FFF7DAFF0544052000F06EFA701CC6B2A5
:1012B000A642F4DBB5FBF4F080B2BDE8F08100009B
:1012C00010B52DED088B0A212048FFF7E1FF08EE4D
:1012D000100AB8EE480A10EE100AFFF74EFA41EC79
:1012E0001A0B9FED1B0B53EC102BFFF746F941EC4B
:1012F000190B9FED190B53EC102B51EC190BFFF749
:1013000036F941EC1B0B9FED160B53EC102BFFF73E
:10131000A6F941EC1A0B9FED140B53EC102BFFF7C1
:1013200085F841EC190B9FED120B53EC102B51EC8F
:10133000190BFFF722F941EC190B41EC1A0BFFF7DF
:10134000FDF904B22046BDEC088B10BD1200001060
:101350006666666666664A3F52B81E85EB51E83F90
:101360007B14AE47E17A643F000000000000394082
:10137000000000000000594038B5024600200090EF
:1013800000BF92F83C00012801D1022038BD0120A5
:1013900082F83C0000BF0868092816D91068C068A8
:1013A0000C780A3C04EB44050724AC40A0431468C5
:1013B000E0600C780A3C04EB44048868A0401468A0
:1013C000E46820431468E06013E0106800690C785A
:1013D00004EB44050724AC40A043146820610C785A
:1013E00004EB44048868A04014682469204314680E
:1013F00020614868072817D21068406B0C79641E7A
:1014000004EB84051F24AC40A04314686063088883
:1014100080B20C79641E04EB8404A0401468646BF1
:1014200020431468606331E048680D2817D21068C3
:10143000006B0C79E41F04EB84051F24AC40A0432F
:1014400014682063088880B20C79E41F04EB8404DC
:10145000A0401468246B20431468206316E01068D1
:10146000C06A0C790D3C04EB84051F24AC40A043FA
:101470001468E062088880B20C790D3C04EB8404A7
:10148000A0401468E46A20431468E0621A4B1B4CC5
:101490001068A04206D10868122803D1586840F4A9
:1014A00080005860154C1068A0421ED1144C08688A
:1014B000A04202D00868112817D1586840F40000F3
:1014C00058600F4C0868A0420FD10E4800680E4CBF
:1014D000B0FBF4F000EB80004000009002E00098C8
:1014E000401E009000980028F9D100BF002082F82B
:1014F0003C0000BF00BF49E700230140002001403D
:10150000120000101C00002040420F000146086835
:10151000C06C704770B5044600250CB9012070BD41
:101520001549A06A884200D000BF206C30B9002065
:10153000606484F83C00204600F020F8206C00F045
:10154000100088B9206C20F4885040F0020020641C
:101550002046FFF783FA00206064206C20F0020030
:1015600040F00100206400E0012500BF002084F865
:101570003C0000BF2846D2E70100000F08B500BFBD
:10158000002100910649096841F48071044A116004
:101590001146096801F48071009100BF00BF08BDC9
:1015A0004438024070B504460D4600262068806825
:1015B00000F4806078B12068806800F4807050B1D9
:1015C000206C40F02000206400BF002084F83C0024
:1015D00000BF012070BD00F0EDFE064612E0681C61
:1015E00080B125B100F0E6FE801BA8420AD9206C2C
:1015F00040F00400206400BF002084F83C0000BFDD
:101600000320E7E72068006800F002000228E6D126
:101610006FF0120021680860206C40F400702064B4
:101620002068806800F04050B8B9A069A8B9206867
:10163000C06A00F4700020B12068806800F4806007
:1016400058B9206C20F480702064206C00F4805025
:1016500018B9206C40F0010020640020BAE70000B7
:1016600008B501460020009000BF91F83C00012819
:1016700001D1022008BD012081F83C0000BF0868AC
:10168000806800F00100A0B90868806840F001009F
:101690000B6898602E4800682E4BB0FBF3F000EB0F
:1016A0004000009002E00098401E00900098002842
:1016B000F9D10868806800F00100002845D0086C66
:1016C00040F20163984340F4807008640868406801
:1016D00000F4806028B1086C20F4005040F4805081
:1016E0000864086C00F4805020B1486C20F00600BB
:1016F000486401E00020486400BF002081F83C00FD
:1017000000BF154A6FF022000B681860506800F0A7
:101710001F0058B90868806800F04050A8B90868F0
:10172000806840F080400B6898600EE00B4B0868C2
:1017300098420AD10868806800F0405028B90868CB
:10174000806840F080400B689860002092E70000BD
:101750001C00002040420F000023014000200140F7
:10176000014691F83500022803D080204865012009
:101770007047052081F835000868006820F00100F6
:101780000A6810600020F3E701B5009817F0D2F85E
:1017900008BD70B504460D461646002200BF94F8F9
:1017A0004500012801D1022070BD012084F84500C8
:1017B00000BF022084F84400A56200221FE005EB70
:1017C00042114FF00040086044F2F4504860C2EB10
:1017D000C21000EB400006EB80008860A069012881
:1017E00003D1486820F000404860581E904204D958
:1017F00005EB42102030C86000E0CD60521C9A42D8
:10180000DDD3206800F58050C560012084F84400D5
:1018100000BF002084F8450000BF00BFC4E770B5DA
:1018200004460D461646002200BF94F845000128E4
:1018300001D1022070BD012084F8450000BF0220C4
:1018400084F84400E56200221BE005EB42114FF4EE
:1018500080100860C2EBC21000EB400006EB800075
:101860008860E06918B9086840F440000860581EB4
:10187000904204D905EB42102030C86000E0CD60F2
:10188000521C9A42E1D3206800F580500561012086
:1018900084F8440000BF002084F8450000BF00BF6A
:1018A000C8E770470146002200BF91F845000128B3
:1018B00001D102207047012081F8450000BF0220BD
:1018C00081F844003AE0521C886A006800F44070D5
:1018D000B0F5007F07D1886A086301238B63886AAB
:1018E000C06888622AE0886A006800F4407030B9F5
:1018F000886B401C8863886AC06888621EE08B6AB7
:101900004B63886B401C8863886B012801D1886A0F
:101910000863886A0068C0F30D40001FC863086B45
:1019200083680B64886AC0688862012081F844007B
:1019300000BF002081F8450000BFBBE7886A00684F
:1019400000F0004008B9052ABDD3012081F8440009
:1019500000BF002081F8450000BF0120AAE710B5B4
:101960000446206800F58050406900F0400040289F
:101970000FD1204600F074FA4021206800F5805015
:101980004161012084F8440000BF002084F8450034
:1019900016E0206800F58050406900F0010078B141
:1019A000204600F031FB0121206800F580504161A4
:1019B000012084F8440000BF002084F8450000BFE7
:1019C0004FF48031206800F580504161206800F5B7
:1019D0008050406900F40040B0F5004F10D120461F
:1019E000FFF75FFF4FF40041206800F58050416130
:1019F000012084F8440000BF002084F8450000BFA7
:101A000010BD00002DE9FC41044600250020019096
:101A10009D4E0027804614B90120BDE8FC8194F852
:101A2000440028B9002084F84500204600F03AF927
:101A300000BF002000909548006840F48040934922
:101A400008600846006800F48040009000BF00BFB6
:101A50008F48006820F400008D490860084600683F
:101A6000216A08438A490860206800F580500068B0
:101A700040F00101206800F58050016000F09AFC00
:101A800007460FE000F096FCC01BB0F5FA7F09D9BD
:101A9000032084F8440000BF002084F8450000BF04
:101AA0000320BAE7206800F58050006800F00100CC
:101AB0000028E7D12068056925F01C0501F08CFAA3
:101AC00006467448864205D37348864202D245F0E2
:101AD00008051AE07048864205D36B48864202D258
:101AE00045F00C0511E06848864203D36B488642F6
:101AF00000D20AE06948864205D36948864202D28C
:101B000045F0040501E045F01005206805614FF43B
:101B100000420021204600F078FA48B14FF0010859
:101B200041462046FFF7B0F9012084F8440074E7ED
:101B3000FF20FFF729FE6068002871D000F03AFC12
:101B4000074600BF01AA0121204600F03FF900F03E
:101B500031FCC01B41F2883188420FD94FF0010897
:101B600041462046FFF790F9012084F8440000BF69
:101B7000002084F8450000BF03204EE7019800F0E4
:101B800004000428DED182020021204600F03DFA44
:101B900048B14FF0010841462046FFF775F9012092
:101BA00084F8440039E700F005FC074600BF01AAAD
:101BB0000121204600F00AF900F0FCFBC01B41F2B5
:101BC000883188420FD94FF0010841462046FFF77F
:101BD0005BF9012084F8440000BF002084F8450030
:101BE00000BF032019E7019800F020002028DED173
:101BF00001AA1F21204600F0E9F848B14FF0010882
:101C000041462046FFF740F9012084F8440004E7EC
:101C1000019800F0100020B14FF40061E16002E093
:101C20000DE00021E160019800F00400042802D1D9
:101C30000021A1601EE04FF48041A1601AE0E0683D
:101C4000C0F3CF00A168C1F34F0140EA01020021B7
:101C5000204600F0DAF948B14FF00108414620462D
:101C6000FFF712F9012084F84400D6E640F6FF7031
:101C7000FFF78AFD41462046FFF706F9012084F868
:101C800044000020C9E60000008793034438024066
:101C900004380140002D3101C00E160200E1F505A7
:101CA00080D1F00810B586B00446414920688842CA
:101CB0007CD100BF00BF002000903E48006840F08B
:101CC00000703C4908600846006800F00070009011
:101CD00000BF00BF00BF002000900846006840F031
:101CE000806008600846006800F08060009000BFD7
:101CF00000BF00BF002000900846006840F0006070
:101D000008600846006800F00060009000BF00BF57
:101D100000BF322001900220029000200390032097
:101D200004900B20059001A9234800F02BFA86208F
:101D300001900220029000200390032004900B20C9
:101D4000059001A91D4800F01DFA4FF400600190B4
:101D50000220029000200390032004900B200590A5
:101D600001A9174800F00EFA4FF4C040019002207C
:101D7000029000200390032004900B20059001A9FD
:101D8000104800F0FFF90820019001200290002087
:101D90000390049001A90C4800F0F4F900220721F7
:101DA0003D2000F005FD3D2000F0F5FC06B010BD23
:101DB000008002403038024000080240000002402B
:101DC0000004024000180240001002402DE9F041DA
:101DD00004460E4617460025A84694F8440082287B
:101DE00002D10220BDE8F081822084F844002068FE
:101DF000056905F01C05208A4FF4784101EAC020EE
:101E00000543481100EA8610054325F0020545F018
:101E100001052068056100F0CDFA804612E000F06F
:101E2000C9FAA0EB0800B0F5803F09D3012084F87F
:101E3000440000BF002084F8450000BF0320D1E724
:101E40002068056905F001000028E8D12068406994
:101E500080B23860012084F844000020C2E700000E
:101E600038B504460020009069460248006817F023
:101E7000C1FA38BD9C01002010B5044600BF94F89B
:101E80004500012801D1022010BD012084F8450041
:101E900000BF022084F844002046FFF72BF92046BB
:101EA000FFF714F92046FEF7B1FF2046FEF78EFF3C
:101EB0002046FEF780FF012084F8440000BF002088
:101EC00084F8450000BF00BFDEE770B5024600237E
:101ED0000025002400BF92F84500012801D102200E
:101EE00070BD012082F8450000BF022082F8440046
:101EF00049B9012082F8440000BF002082F8450063
:101F000000BF0120ECE7D06A006800F0004048B153
:101F1000122082F8440000BF002082F8450000BF74
:101F20000120DDE740F2F450814208D9B1FBF0F323
:101F3000B1FBF0F600FB161010B15B1C00E00123B2
:101F4000012B13D1D06A006840F04050D66A30604F
:101F5000C1F30C00D66A7060D06A006840F000409F
:101F6000D66A3060D06AC068D06232E000242EE0C9
:101F7000D06A006820F04050D66A30602CB9D06A30
:101F8000006840F08050D66A306040F2F450D66A63
:101F90007060581EA04210D1D06A006840F0005016
:101FA000D66A3060581EC0EBC01000EB4000A1EBB9
:101FB0008005C5F30C00D66A7060D06A006840F0F6
:101FC0000040D66A3060D06AC068D062641C9C420F
:101FD000CED3106800F58050406900F0040048B18D
:101FE0000426106800F5805046610026106800F550
:101FF00080504660012082F8440000BF002082F833
:10200000450000BF00BF6BE770472DE9F041044673
:102010000E4617460025A84694F84400422802D1EF
:102020000220BDE8F081422084F844002068056960
:1020300005F01C05208A4FF4784101EAC0200543D1
:10204000481100EA8610054345F0020545F00105F8
:10205000B8B2216848612068056100F0ABF980469C
:1020600012E000F0A7F9A0EB0800B0F5803F09D31B
:10207000012084F8440000BF002084F8450000BF20
:102080000320CEE72068056905F001000028E8D1AB
:10209000012084F844000020C3E7000000B587B0A9
:1020A0003148006808B107B000BD01202E49086022
:1020B00000BF002001902D48006840F001002B492E
:1020C00008600846006800F00100019000BF00BFF2
:1020D0004FF63F000290022003900020049003205E
:1020E00005900C20069002A9214800F04BF80D2025
:1020F00002900220039000200490032005900C2001
:10210000069002A91B4800F03DF848F237100290F3
:102110000220039000200490032005900C200690DC
:1021200002A9154800F02EF84FF6807002900220A8
:10213000039000200490032005900C20069002A933
:102140000E4800F01FF84CF203700290022003903A
:1021500000200490032005900C20069002A9084856
:1021600000F010F800BF9EE714000020383802404D
:102170000014024000080240001802400010024013
:10218000000C0240F8B502460B4600250024002052
:102190000021E6E0012606FA01F51E6806EA0504BC
:1021A000AC4273D15E68022E02D05E68122E13D14B
:1021B000CF0802F1200656F827004E07F70E0F262B
:1021C000BE40B0434F07FF0E1E69BE403043CF08EC
:1021D00002F1200646F8270010684F000326BE4093
:1021E000B0431E7906F003064F00BE403043106036
:1021F0005E68012E08D05E68022E05D05E68112E42
:1022000002D05E68122E13D190684F000326BE40A4
:10221000B0434F00DE68BE403043906050680126F6
:102220008E40B0431E79C6F300168E403043506096
:10223000D0684F000326BE40B0434F009E68BE40AA
:102240003043D0605E6806F08056B6F1805FA8D15A
:1022500000BF00260096454E366846F48046434F40
:102260003E603E46366806F48046009600BF00BFDA
:102270003F4E8F0856F827008E07370F0F26BE40B7
:10228000B0433C4EB24202D100262EE068E03A4E06
:10229000B24201D1012628E0384EB24201D10226D5
:1022A00023E0374EB24201D103261EE0354EB24242
:1022B00001D1042619E0344EB24201D1052614E0C2
:1022C000324EB24201D106260FE0314EB24201D168
:1022D00007260AE02F4EB24201D1082605E02E4E15
:1022E000B24201D1092600E00A268F073F0FBE4007
:1022F00030431F4E8F0846F82700284E3068A04311
:102300005E6806F48036B6F5803F00D12043234E48
:102310003060361D3068A0435E6806F40036B6F5BE
:10232000003F00D120431D4E361D3060361D306801
:10233000A0435E6806F48016B6F5801F00D12043E6
:10234000164E08363060361D3068A0435E6806F4CD
:102350000016B6F5001F00D12043104E0C36306039
:10236000491C1029FFF416AFF8BD000044380240A4
:10237000083801400000024000040240000802400A
:10238000000C0240001002400014024000180240FD
:10239000001C02400020024000240240003C01409A
:1023A00042694A40426170470AB1816101E00B0411
:1023B0008361704701480068704700003C000020BE
:1023C00002480068401C0149086070473C0000203A
:1023D00010B50D48006840F400700B4908600846CD
:1023E000006840F4806008600846006840F480702F
:1023F0000860032000F01AFA002000F007F800F04F
:102400009FF9002010BD0000003C024070B504465A
:10241000074800684FF47A71B0FBF1F5284601F0E7
:1024200021FB00222146501E00F0C2F9002070BDA1
:102430001C00002070B504460E46154600BF94F8F7
:10244000A000012801D1022070BD012084F8A00065
:1024500000BF022084F8A10005EB850101EBC50255
:1024600004F1380101EB820034223146FDF728FFE8
:102470002A463146204601F015FD012021684862B8
:1024800084F8A10000BF002084F8A00000BF00BFB6
:10249000DAE7000070B50446002500260CB90120DB
:1024A00070BD94F8A10028B9002084F8A00020464F
:1024B00000F07EF8022084F8A1002068806920F0F6
:1024C000704021688861D4E901010843E16808434C
:1024D0002169084321688969084321688861206867
:1024E00080683249084021688860A08A0504206815
:1024F0008068A16929430843216888602068C06812
:102500002A4908402168C860A08B05042068C0687B
:10251000216A294308432168C8602068006923496B
:10252000084021680861A08C050420680069A16A40
:102530002943084321680861206840691B49084015
:1025400021684861A08D050420684069216B2943FA
:1025500008432168486194F83500050294F8360074
:1025600006042068C06A00F07F402168C86246EA1D
:10257000050094F8341008432168C96A08432168AB
:10258000C8622068406B40F00600216848632068FC
:10259000806940F00100216888610020C4F8A4002F
:1025A000012084F8A10000207AE7000000F800F084
:1025B00010B586B004465649206888427ED100BFD7
:1025C000002000905348006840F080605149086046
:1025D0000846006800F08060009000BF00BF7020D7
:1025E0000190022002900020039004900E2005909C
:1025F00001A94948FFF7C6FD4FF48C400190022025
:1026000002900020039004900E20059001A94348F9
:10261000FFF7B8FD4FF48060019002200290002087
:10262000039004900E20059001A93D48FFF7AAFDF4
:102630000C200190022002900020039004900E20B4
:10264000059001A93748FFF79DFD48200190022021
:1026500002900020039004900E20059001A93248BA
:10266000FFF790FD032001900220029000200390CC
:1026700004900920059001A92C48FFF783FD4AF238
:102680005A400190022002900020039004900E20F6
:10269000059001A92648FFF775FD4FF48060019071
:1026A000022002900020039004900E20059001A9C2
:1026B0001E48FFF767FD6720019000E025E002203B
:1026C00002900020039004900E20059001A9194863
:1026D000FFF758FD40200190022002900020039057
:1026E00004900E20059001A91348FFF74BFD4FF40D
:1026F0008050019002200290002003900490092055
:10270000059001A90D48FFF73DFD06B010BD000082
:10271000006801404438024000100240002002409E
:1027200000140240001C024000000240000402406D
:102730000024024000280240000C02400018024021
:1027400010B5032000F072F8002211466FF00B0064
:1027500000F02EF8002211466FF00A0000F028F871
:10276000002211466FF0090000F022F80022114605
:10277000501F00F01DF800221146101F00F018F83D
:1027800000221146901E00F013F800221146501E40
:1027900000F00EF810BD00BF00F01F0201219140B3
:1027A0004209920002F1E022C2F8001100BF704716
:1027B0002DE9F05F80460D461646002701F08EFF9A
:1027C000074639462A46334601F00700C0F1070A9A
:1027D000BAF1040F02D94FF0040A01E0C0F1070A70
:1027E000D14600F1040ABAF1070F02D24FF0000AF5
:1027F00001E0A0F1030AD4464FF0010A0AFA09FAEF
:10280000AAF1010A0AEA020A0AFA0CFA4FF0010BCD
:102810000BFA0CFBABF1010B0BEA030B4AEA0B04BE
:102820002146404601F062FFBDE8F09F00BF00F086
:102830000702064B19684FF6FF031940044B0B4380
:1028400043EA0221014B196000BF70470CED00E024
:102850000000FA0530B58BB00446002514B90120FC
:102860000BB030BD032084F8B903204600F094F883
:10287000206803F00DFA282204F110016846FDF7E4
:102880001FFD94E80F0003F0C5F80021206803F055
:1028900035FA002530E00121C5EBC50204F138000E
:1028A00000EB82004170C5EBC50204F1380000F86E
:1028B0002250C5EBC50200EB8200C5800021C5EBAC
:1028C000C50204F1380000EB8200C170C5EBC502FF
:1028D00004F1380000EB82008160C5EBC50204F111
:1028E000380000EB8200C160C5EBC50204F138007E
:1028F00000EB820041616D1C0F2DCCD3002536E02A
:102900000021C5EBC50204F5FC7000EB82004170AC
:10291000C5EBC50204F5FC7000F82250C5EBC502FA
:1029200004F1380000EB8200C580C5EBC50204F558
:10293000FC7000EB8200C170C5EBC50204F5FC70B1
:1029400000EB82008160C5EBC50204F5FC7000EB72
:102950008200C160C5EBC50204F5FC7000EB82008B
:102960004161206800F5827040F825106D1C0F2D24
:10297000C6D3282204F110016846FDF7A1FC94E8B3
:102980000F0003F0B5F8012084F8B903206803F0C4
:102990009FF8002064E7000010B586B00446124995
:1029A000206888421ED14FF44040019002200290DE
:1029B00000200390032004900C20059001A90B48EF
:1029C000FFF7E0FB00BF002000900948006840F0DE
:1029D0000050074908600846006800F00050009069
:1029E00000BF00BF06B010BD00000440000402405C
:1029F0003038024038B5002400BF00200090234842
:102A0000006840F08050214908600846006800F0E6
:102A10008050009000BF00BF0120010491FAA1F195
:102A2000B1FA81F11A4A42F82100FFF7C3FC0446CB
:102A300007E0FFF7BFFC001BB0F57A7F01D9032048
:102A400038BD1448406800F48030B0F5803FF0D1C4
:102A50000120410491FAA1F1B1FA81F10C4A42F846
:102A60002100FFF7A7FC044607E0FFF7A3FC001BCB
:102A7000B0F57A7F01D90320E2E70648406800F408
:102A80000030B0F5003FF0D10020D9E740380240D7
:102A900000000E4200700040F8B5044600250026F4
:102AA000207800F0010020B9207800F00200022810
:102AB00066D10020CE498866FFF77CFC054606E01B
:102AC000FFF778FC401B022801D90320F8BDC94854
:102AD0000068C0F3C0600028F2D1207800F0010047
:102AE00098B147F6C07191FAA1F1B1FA81F160682D
:102AF00088404FF0E04292FAA2F2B2FA82F2A16864
:102B000091400843BB4984310860207800F00200FE
:102B1000022821D1B7488430006800F0E0404FF02F
:102B2000E04191FAA1F1B1FA81F120FA01F6606871
:102B30008101207B41EA006040EA0670AD498431A2
:102B40000860AC488C30006820F01F00E169491E25
:102B50000843A8498C3108600120A5498866FFF721
:102B600029FC054606E0FFF725FC401B022801D999
:102B70000320ABE79F480068C0F3C0600028F2D094
:102B8000207800F00400042804D0207800F0080029
:102B900008287DD1002096490867FFF70BFC054601
:102BA00006E0FFF707FC401B022801D903208DE750
:102BB00090480068C0F340700028F2D1207800F0FF
:102BC0000400042834D18B488830006800F0E040CD
:102BD0004FF0E04191FAA1F1B1FA81F120FA01F64A
:102BE00047F6C07191FAA1F1B1FA81F120698840EC
:102BF0004FF0706292FAA2F2B2FA82F261699140E9
:102C000008434FF0E04191FAA1F1B1FA81F106FADF
:102C100001F10843774988310860081D006820F4F5
:102C2000F851206A401E41EA002072498C31086048
:102C3000207800F00800082834D16E4888300068F9
:102C400000F070604FF0706191FAA1F1B1FA81F17A
:102C500020FA01F647F6C07191FAA1F1B1FA81F1BB
:102C6000206988404FF0706191FAA1F1B1FA81F1C9
:102C700006FA01F108434FF0E04292FAA2F2B2FAEA
:102C800082F2A169914008435A498831086000E006
:102C90001CE0081D006820F44030616A0843554973
:102CA0008C310860012052490867FFF783FB054615
:102CB00006E0FFF77FFB401B022801D9032005E750
:102CC0004C480068C0F340700028F2D0207800F033
:102CD000200020287ED100BF0020009045484030D1
:102CE000006840F080504349403108600846006861
:102CF00000F08050009000BF00BF3F48006840F4E3
:102D000080703D490860FFF755FB054606E0FFF778
:102D100051FB401B022801D90320D7E63648006842
:102D200000F480700028F2D032487030006800F45F
:102D300040764EB3208D00F44070B04224D02D4830
:102D40007030006820F4407601202C490860002093
:102D50000860284870300660006800F0010098B1F3
:102D6000FFF728FB054608E0FFF724FB401B41F274
:102D70008831884201D90320A8E61E4870300068D7
:102D8000C0F340000028EFD000BF208D00F4407059
:102D9000B0F5407F0CD117480830006820F4F810D7
:102DA000174AA16A1140084312490831086007E038
:102DB00010480830006820F4F8100E490831086007
:102DC0000C4870300068218DC1F30B01084309499C
:102DD000703100E001E0086000BF207800F01000D2
:102DE000102803D194F82C000649086000206DE6F5
:102DF000000047420038024000700040400E474249
:102E0000FFFCFF0FE011474270B504460D46002657
:102E10006D48006800F00F00A84209D26A490D70A1
:102E20000846006800F00F00A84201D0012070BDE4
:102E3000207800F00200022807D16448006820F0E2
:102E4000F000A168084361490860207800F00100A3
:102E5000002877D06068012807D15C4808380068EE
:102E6000C0F34040B8B90120E1E76068022802D011
:102E70006068032807D1554808380068C0F34060EF
:102E800048B90120D3E7514808380068C0F3400032
:102E900008B90120CBE74D48006820F003006168C5
:102EA00008434A490860FFF785FA0646606801282A
:102EB00010D108E0FFF77EFA801B41F2883188428A
:102EC00001D90320B3E74148006800F00C00042852
:102ED000F0D137E06068022810D108E0FFF76AFA05
:102EE000801B41F28831884201D903209FE737488F
:102EF000006800F00C000828F0D123E06068032887
:102F000010D108E0FFF756FA801B41F28831884261
:102F100001D903208BE72D48006800F00C000C2835
:102F2000F0D10FE008E0FFF745FA801B41F288314D
:102F3000884201D903207AE72448006800F00C0099
:102F40000028F0D12048006800F00F00A84209D9FD
:102F50001D490D700846006800F00F00A84201D01E
:102F6000012064E7207800F00400042807D1174806
:102F7000006820F4E050E1680843144908602078B4
:102F800000F00800082808D11048006820F46040CC
:102F9000216940EAC1000D49086000F04FF80B4973
:102FA000096801F0F001F02292FAA2F2B2FA82F27C
:102FB000D140074A515CC840064908600020FFF72D
:102FC00025FA002033E70000003C024008380240A8
:102FD000749A01081C000020014800687047000036
:102FE0001C00002000B5FFF7F7FF0749096801F44E
:102FF000E0514FF4E05292FAA2F2B2FA82F2D140DA
:10300000024A515CC84000BD08380240849A010859
:1030100000B5FFF7E1FF0749096801F460414FF48B
:10302000604292FAA2F2B2FA82F2D140024A515CB4
:10303000C84000BD08380240849A010870B50021DC
:10304000002200230020274C246804F00C0424B143
:10305000042C04D0082C41D103E0234840E023484D
:103060003EE0204C241F246804F03F011D4C241F27
:10307000246804F4800484B11C4CB4FBF1F5194CB1
:10308000241F246847F6C076344096FAA6F6B6FAAE
:1030900086F6F44005FB04F20FE0134CB4FBF1F5A7
:1030A000104C241F246847F6C076344096FAA6F6E2
:1030B000B6FA86F6F44005FB04F20A4C241F246895
:1030C00004F440344FF4403595FAA5F5B5FA85F58A
:1030D000EC40641C6300B2FBF3F001E0024800BF67
:1030E00000BF70BD083802400024F40040787D0124
:1030F00038B504460025207800F00100002874D07F
:10310000F748006800F00C0004280DD0F44800686F
:1031100000F00C00082813D1F148001F006800F4EB
:103120008000B0F5800F0BD1ED4808380068C0F37F
:103130004040002859D06068002856D1012038BD91
:1031400000BF6068B0F5803F08D1E54808380068E6
:1031500040F48030E249083908601EE06068B0F54C
:10316000A02F0DD1DE480838006840F48020DC49EB
:10317000083908600846006840F4803008600CE0B8
:10318000D7480838006820F48030D54908390860ED
:103190000846006820F48020086000BF606890B195
:1031A000FFF708F9054606E0FFF704F9401B64281D
:1031B00001D90320C3E7CA4808380068C0F340407B
:1031C0000028F1D011E0FFF7F5F8054606E0FFF71B
:1031D000F1F8401B642801D90320B0E7C048083843
:1031E0000068C0F340400028F1D1207800F00200D0
:1031F000022869D1BA48006800F00C0058B1B848FC
:10320000006800F00C00082821D1B548001F0068B4
:1032100000F48000D8B9B24808380068C0F3400014
:1032200020B1E068012801D0012088E7AC480838C7
:10323000006820F0F800F82292FAA2F2B2FA82F2C4
:10324000216991400843A649083908603CE0E068DC
:1032500028B30120A3490860FFF7ACF8054606E053
:10326000FFF7A8F8401B022801D9032067E79C4814
:1032700008380068C0F340000028F1D098480838AA
:10328000006820F0F800F82292FAA2F2B2FA82F274
:1032900021699140084392490839086014E00020F0
:1032A00090490860FFF786F8054606E0FFF782F8C8
:1032B000401B022801D9032041E7894808380068EB
:1032C000C0F340000028F1D1207800F00800082861
:1032D0002CD16069A8B1012083490860FFF76AF822
:1032E000054606E0FFF766F8401B022801D90320D7
:1032F00025E77B486C300068C0F340000028F1D01F
:1033000014E0002078490860FFF754F8054606E00D
:10331000FFF750F8401B022801D903200FE770483F
:103320006C300068C0F340000028F1D1207800F034
:10333000040004287FD100BF002000906848383086
:10334000006840F0805066493831086008460068DF
:1033500000F08050009000BF00BF6448006840F457
:10336000807062490860FFF725F8054606E0FFF720
:1033700021F8401B022801D90320E0E65B480068E1
:1033800000F480700028F2D000BFA068012808D1A6
:1033900053486830006840F00100514968310860C6
:1033A0001DE0A06805280DD14D486830006840F048
:1033B00004004B49683108600846006840F001008D
:1033C00008600CE046486830006820F0010044497D
:1033D000683108600846006820F00400086000BFFB
:1033E000A068A0B1FEF7E6FF054608E0FEF7E2FFA1
:1033F000401B41F28831884201D903209FE63848BA
:1034000068300068C0F340000028EFD013E0FEF7FA
:10341000D1FF054608E0FEF7CDFF401B41F28831A1
:10342000884201D903208AE62D4868300068C0F33D
:1034300040000028EFD1A069F0B32948006800F0EF
:103440000C00082871D0A069022858D10020254915
:103450000866FEF7AFFF054606E0FEF7ABFF401B30
:10346000022801D903206AE61D4808380068C0F325
:1034700040600028F1D1D4E90701084347F6C07243
:1034800092FAA2F2B2FA82F2616A914008430122F2
:10349000A16AC2EB51014FF4403292FAA2F2B2FAA1
:1034A00082F2914008434FF0706292FAA2F2B2FAAF
:1034B00082F2E16A914000E039E008430849091FBF
:1034C0000860012007490866FEF774FF05460FE013
:1034D000FEF770FF401B02280AD903202FE60000E8
:1034E0000838024000004742800E4742007000400A
:1034F00010480068C0F340600028E9D017E00020C1
:103500000D490866FEF756FF054606E0FEF752FF36
:10351000401B022801D9032011E606480068C0F3C9
:1035200040600028F2D102E0FFE7012007E600201A
:1035300005E60000003802400000474270B504462E
:103540000D460CB9012070BD94F82C0028B900205C
:1035500084F82D00204600F011F8022084F82C0099
:10356000211D2068FDF7DAFD2946D4E90002FDF7A8
:103570000FFE012084F82C000020E4E710B504467B
:10358000FEF78CFD10BD70B58AB004460D460026CE
:10359000032084F83400606C032820D0B5F5805FE8
:1035A00004D1A06B40F08050A0631CE0B5F5006F23
:1035B00007D1204601F0DAFD0646A06B3043A06338
:1035C00011E03DB9204601F09CFD0646A06B30435A
:1035D000A06308E0A06B40F00060A06303E0A06B74
:1035E00040F08050A063A06B40B140F2FF502168D2
:1035F0008863012084F834000AB070BD60680490CC
:10360000A0680590E0680690079560690890A06939
:10361000099007A807C88DE80700206804A90EC90B
:1036200001F0AEF8012084F834000020E4E730B562
:1036300003460022586E020E90090870C2F3830000
:10364000487002F003008870586EC0F30742CA70D9
:10365000B3F86400C0F307220A7193F864204A713A
:10366000986E020E4FF6FF7000EA0210C880986E46
:10367000C0F30742C88840EA1210C88002F00F0069
:1036800008726820C05AC0F30722D0094872C2F3FA
:1036900080108872C2F34010C872C2F30010087321
:1036A00000204873586C00283ED19007000D086137
:1036B0006820C25C086940EA82000861D86E020E88
:1036C000086940EA92100861C2F3C200087502F06E
:1036D00007004875D86EC0F3074250098875C2F3D9
:1036E0008200C8759007400F08766C20C05AC0F35E
:1036F0000722087E40EAD21008760869401C586507
:103700000C7E586DA41C0125A540684358650C7AB1
:103710000120A0409865D3E91504640A6043D86588
:103720004FF400741C6630E0586C012821D16820E9
:10373000C25C9006800A0861D86E020E086940EAF1
:1037400002200861D86EC0F307420869104308617F
:103750006C20C05AC0F307220869441C4FF48060F3
:10376000A4FB00045865D8654FF400749C651C6682
:103770000BE040F2FF501C68A063986B40F0805053
:103780009863012083F8340030BDC2F3801001F843
:10379000190F9006400E48706C20C25C487840EAD1
:1037A000D210487002F07F008870186F020ED009A6
:1037B000C870C2F341100871C2F3820048719007CB
:1037C000000F8871186FC0F30742887940EA9210A1
:1037D0008871C2F34010C8710020087202F0010025
:1037E00048727020C05AC0F30722D0098872C2F311
:1037F0008010C872C2F340100873C2F300104873FF
:10380000C2F38100887302F00300C8737020C25CA9
:10381000500808740120487419390020B4E710B525
:1038200004460CB9012010BD94F8340020B90020E2
:103830002077204600F050F8032084F8340020461A
:1038400000F008F80020A0632063012084F8340011
:103850000020E8E730B589B0044600250020039039
:1038600004900590069007907620089006A807C857
:103870008DE80700206803A90EC900F081FF002031
:1038800014490860206800F095FF01201149A03913
:10389000C1F8A0000220FDF777FF204601F0BAFB37
:1038A000054645B1012084F83400A06B2843A0638D
:1038B000012009B030BD204601F02EFB05463DB188
:1038C000012084F83400A06B2843A0630120F0E7B6
:1038D0000020EEE7A080254210B586B004461949C5
:1038E000206888422CD100BF002000901648006854
:1038F00040F40060144908600846006800F4006065
:10390000009000BF00BF4FF4F850019002200290D9
:1039100000200390032004900C20059001A90B487F
:10392000FEF730FC0420019002200290002003905A
:10393000032004900C20059001A90548FEF722FC05
:1039400006B010BD002C014044380240000802407F
:10395000000C024010B504460CB9012010BD606A8D
:1039600000B900BF0021A16294F8510028B90020DD
:1039700084F85000204600F033F8022084F851000B
:103980002068006820F0400021680860D4E9010147
:103990000843E16808432169084361690843218BB2
:1039A00001F400710843E1690843216A0843A16AF0
:1039B0000843216808600421A06901EA1040616A97
:1039C0000843216848602068C06920F400602168CD
:1039D000C86100206065012084F851000020BDE727
:1039E00010B586B004461249206888421DD100BF38
:1039F000002000900F48006840F480500D49086096
:103A00000846006800F48050009000BF00BF3820D6
:103A100001900220029000200390032004900520D2
:103A2000059001A90448FEF7ADFB06B010BD0000EB
:103A3000003001404438024000040240042808D10C
:103A40004FF0E021096941F004014FF0E0221161DB
:103A500007E04FF0E021096921F004014FF0E02276
:103A60001161704770B504462546681EB0F1807F2D
:103A700001D301200FE0681E4FF0E02148610F21C3
:103A80004FF0FF3000F032FE00204FF0E02188615F
:103A900007200861002070BD704700002DE9F04745
:103AA0000446206805682068C668206847694FF0AA
:103AB0000008C14605F00F08B8F1000F0AD105F063
:103AC000200038B106F0200020B1204601F02EFD84
:103AD000BDE8F087B8F1000F6DD007F0010018B90C
:103AE00006F49070002866D005F0010030B106F4AD
:103AF000807018B1E06B40F00100E06305F0040055
:103B000030B107F0010018B1E06B40F00200E06353
:103B100005F0020030B107F0010018B1E06B40F091
:103B20000400E06305F0080030B107F0010018B1AF
:103B3000E06B40F00800E063E06B68B305F0200044
:103B400028B106F0200010B1204601F0EFFC2068FB
:103B50004069C0F38019E06B00F0080010B9B9F1BA
:103B6000000F22D0204601F0C1FC2068406900F01F
:103B70004000B0B12068406920F0400021684861F1
:103B8000606B50B11748616B0865606BFDF7E8FD2D
:103B900010B1606B016D88470CE02046FFF77CFF99
:103BA00008E02046FFF778FF04E02046FFF774FFA7
:103BB0000020E0638CE705F0800030B106F0800063
:103BC00018B1204601F0B4FE82E705F0400030B1A4
:103BD00006F0400018B1204601F098FC78E700BFDD
:103BE00076E70000D954000810B504460CB901204E
:103BF00010BDA06900B100E000BF94F8390028B9F9
:103C0000002084F83800204600F028F8242084F8AA
:103C100039002068C06820F400502168C860204640
:103C200001F0D2FC2068006920F49040216808610E
:103C30002068406920F02A00216848612068C06837
:103C400040F400502168C8600020E063202084F820
:103C5000390084F83A000020CAE7000010B586B0A9
:103C600004461249206888421ED100BF00200090FF
:103C70000F48006840F010000D49086008460068D1
:103C800000F01000009000BF00BF4FF4C060019032
:103C90000220029001200390032004900720059049
:103CA00001A90448FEF76EFA06B010BD00100140ED
:103CB000443802400000024010B5034693F83A0031
:103CC000202829D101B10AB9012010BD00BF93F805
:103CD0003800012801D10220F7E7012083F83800DD
:103CE00000BF99629A85DA850020D863222083F884
:103CF0003A0000BF002083F8380000BF1868406910
:103D000040F001001C6860611868C06840F4907061
:103D10001C68E0600020D8E70220D6E710B5044612
:103D2000012207490748FFF7C7FF07488078FF28A7
:103D300004DA03480178044802F012F810BD0000CC
:103D400054080020A8030020E70A00202DE9F843CA
:103D500004460D4616461F464FF0000994F83900F8
:103D600020285CD105B116B90120BDE8F88300BF59
:103D700094F83800012801D10220F6E7012084F8E8
:103D8000380000BF0020E063212084F83900FEF7EE
:103D900011FB8146A684E6842BE0E08C401EE08483
:103DA000A068B0F5805F16D14B46002280212046E6
:103DB000009701F0F1FD08B10320D6E7A846B8F856
:103DC0000000C0F3080021684860206908B9AD1CF4
:103DD0000FE06D1C0DE04B4600228021204600972D
:103DE00001F0DAFD08B10320BFE715F8010B2168E7
:103DF0004860E08C0028D0D14B460022402120466C
:103E0000009701F0C9FD08B10320AEE7202084F837
:103E1000390000BF002084F8380000BFA5E7022069
:103E2000A3E710B5034693F83900202823D101B148
:103E30000AB9012010BD00BF93F83800012801D154
:103E40000220F7E7012083F8380000BF19629A8446
:103E5000DA840020D863212083F8390000BF0020D5
:103E600083F8380000BF1868C06840F080001C6804
:103E7000E0600020DEE70220DCE7000038B5044601
:103E80000648807840B1054800F044FC00900122CB
:103E900069462046FFF7C5FF38BD0000E70A00204D
:103EA00000BFFEE7F0B50023002400258E880768D8
:103EB000FF68C7F30B473E44330406688436802707
:103EC00007FB0266766806F47047066884364FF092
:103ED000800C0CFB026677600E680768FF68C7F30A
:103EE0000B473E44761C1E43076884370CFB027761
:103EF0007E608E890768FF68C7F30A073E44330473
:103F000006688436802707FB0266B66806F47047A9
:103F1000066884360CFB0266B7608E680768FF6827
:103F2000C7F30A073E44761C1E43076884370CFB20
:103F30000277BE6006688436802707FB0266366912
:103F400026F00707066884360CFB026637610F69A6
:103F5000066884360CFB026637613126765C3302D4
:103F60003226765C34040E7E350606688436802759
:103F700007FB0266B6690027066884360CFB0266FA
:103F8000B76191F830601E4326432E43076884379B
:103F90000CFB0277BE6106688436802707FB026649
:103FA000766926F0FF07066884360CFB02667761A7
:103FB0004F69066884360CFB0266776106688436B2
:103FC000802707FB0266F76940F20776B743066869
:103FD00084360CFB0266F761D1E907673E43076848
:103FE00084370CFB0277FE6106688436802707FB66
:103FF0000266B66A0027066884360CFB0266B76262
:104000004F6A066884360CFB0266B7620E690EB909
:10401000042313E00E69012E01D103230EE00E6983
:10402000042E08D00E69022E05D00E69032E02D090
:104030000E69072E01D1022300E0012306688436B1
:10404000802707FB0266F66A06F0E02706688436DA
:104050004FF0800C0CFB0266F762D1E90076F61B8C
:104060005E43F71C0E8D5E4347EA064706688436BA
:104070000CFB0266F76206688436802707FB02663F
:10408000366BF70AFF02066884360CFB026637635C
:10409000CF6A066884360CFB02663763066884368E
:1040A000D701F65946F00107066884364FEAC21C6C
:1040B00046F80C70F0BD00002DE9F04781460E4631
:1040C00015461F460024A046324629461BA0FDF790
:1040D000ADF8814609F1010000282CD000BF22E094
:1040E00055F8240015A1FCF732F950B957F824000F
:1040F00015A1FCF72CF9A0B908F1010000F0FF08A8
:104100000FE055F8240012A1FCF721F948B957F83F
:1041100024000DA1FCF71BF918B908F1010000F00B
:10412000FF08601CC4B2B442DADBB8F1010F02DD53
:104130000AA0BDE8F0870CA0FBE70000757365726C
:104140006E616D650000000061646D696E000000C5
:1041500070617373776F7264000000002F6D656E7D
:10416000752E68746D6C00002F696E6465782E681A
:10417000746D6C0000B587B01448154908600020C4
:1041800048600021124881600821C160102101614E
:1041900040214161802181610021C1610162416250
:1041A000816210200090019002900390049005908D
:1041B000069069460648FFF7C1F920B140F28D210B
:1041C00004A001F0D7FD07B000BD0000400100A031
:1041D000D80700202E2E5C557365725C5372635CA9
:1041E0006D61696E2E63000000B587B000BF0020CE
:1041F00001906848006840F0100066490860084671
:10420000006800F01000019000BF00BF00BF002058
:1042100001900846006840F4807008600846006815
:1042200000F48070019000BF00BF00BF002001902B
:104230000846006840F0200008600846006800F06A
:104240002000019000BF00BF00BF00200190084681
:10425000006840F0800008600846006800F08000B8
:10426000019000BF00BF00BF002001900846006819
:1042700040F0040008600846006800F00400019067
:1042800000BF00BF00BF002001900846006840F05A
:10429000010008600846006800F00100019000BFBE
:1042A00000BF00BF002001900846006840F00200F7
:1042B00008600846006800F00200019000BF00BFDF
:1042C00000BF002001900846006840F400700860BC
:1042D0000846006800F40070019000BF00BF00BFF6
:1042E000002001900846006840F040000860084641
:1042F000006800F04000019000BF00BF00BF002038
:1043000001900846006840F0080008600846006810
:1043100000F00800019000BF00BF00BF0020019026
:104320000846006840F4806008600846006800F4B1
:104330008060019000BF00BF002289141648FEF77C
:1043400033F8002288211548FEF72EF84FF48070CC
:10435000029000200390049002A91148FDF712FF7B
:104360004FF48050029001200390002004900590AB
:1043700002A90948FDF706FF88200290012003905A
:1043800000200490059002A90448FDF7FBFE07B049
:1043900000BD000030380240000C0240001802400E
:1043A0000020024000B59BB03A483B49086000201D
:1043B0004860002138488160C16001610721416186
:1043C000032181610E21C1610521016240F28E212C
:1043D000416240F2E51181624FF42571C16240F201
:1043E000E7110163002180F8341080F8351080F85F
:1043F0003610FEF74FF820B14FF4F77127A001F007
:10440000B9FC00200E900F90109011901290139014
:1044100014904FF48060159005201690002017909E
:10442000189019908DF8680000218DF869108DF8AA
:104430006A1000220EA91848FDF7FCFF20B140F2D7
:10444000022116A001F096FC00200190029003903A
:1044500004900590069007904FF480600890052026
:10446000099000200A900B900C908DF834000021E8
:104470008DF835108DF83610012201A90648FDF798
:10448000D9FF20B140F2162104A001F073FC1BB04B
:1044900000BD000000680140240200202E2E5C5563
:1044A0007365725C5372635C6D61696E2E630000AC
:1044B0003EB50021084613F03DFA0020134908607C
:1044C0001349086013490860134814490022114B2E
:1044D000CDE9002102900E4A0C4911480BF0F4FA84
:1044E00004460F480BF03CFC0D4890F83500C0F333
:1044F000800018B10A480BF061FD02E008480BF09B
:104500005DFC074801F01CFC3EBD000020000020BF
:104510002400002028000020F17A0108B99B00083F
:104520008C0C002010B5012202212520FEF740F955
:104530002520FEF730F910BD10B50D480D49086073
:104540000020486000210B488160C1600161416129
:104550008161FFF764F920B14FF40A7106A001F000
:1045600009FC4FF400610348FFF70DF810BD00008F
:10457000002C0140CC0200202E2E5C557365725C2D
:104580005372635C6D61696E2E63000010B50F4855
:104590000F4908604FF48270486000210C48816028
:1045A000C160016141614FF4007181610021C1610D
:1045B0000162416281620A21C162FFF7CBF920B139
:1045C00040F2412103A001F0D5FB10BD00300140B5
:1045D000500300202E2E5C557365725C5372635C31
:1045E0006D61696E2E63000010B50C480C490860BF
:1045F0004FF4E1304860002109488160C1600161E9
:104600000C21416100218161C161FFF7EDFA20B108
:104610004FF4157103A001F0ADFB10BD0010014077
:10462000A80300202E2E5C557365725C5372635C88
:104630006D61696E2E63000010B50E480E4908606A
:104640000620486002210C48C160002101614161DF
:10465000022181610021C16101624162C162016385
:104660004163FEF7F7F820B140F26B2103A001F09F
:1046700081FB10BD00000440E80300202E2E5C5595
:104680007365725C5372635C6D61696E2E630000CA
:1046900010B50D480D4908604FF480304860002186
:1046A0000A488160C1600161416181610121C1618C
:1046B000002101624162064981620021C1620163F9
:1046C000FCF728FF10BD0000002001400C0800206E
:1046D0000100000F00BFFEE77047000002480068BD
:1046E000C0F30220704700000CED00E010B5002878
:1046F00007DA0A07140E054A00F00F031B1FD454F3
:1047000003E00A07130E024A135410BD18ED00E02F
:1047100000E400E00146887810B18878401E887077
:104720000A78501C0870C81C805C704710B502469F
:1047300000230868506248689062D1E9020420436F
:104740000C6920434C6920430343D06A20F0F700F2
:104750001843D062002010BD01460869C0B27047FE
:104760000146086800F00300704708B502460020C3
:10477000009002F11400084400900098006808BD01
:104780000FB410B504460021DDE903021043059A79
:104790001043069A1043079A1043089A10430143A6
:1047A000606847F6FF62904308436060002010BCD9
:1047B0005DF814FB014603200860002070470146A5
:1047C000D1F88000704710B5024600230868906059
:1047D000D1E901042043CC6820430C692043034302
:1047E000D0686FF30B001843D060002010BD70B587
:1047F00086B005460C4600260194372002904020E2
:104800000390002004904FF48060059001A9284691
:10481000FFF7D9FF41F288323721284600F03AF9F4
:104820000646304606B070BD70B586B005460C46EB
:1048300000260B482043019029200290402003903D
:10484000002004904FF48060059001A92846FFF7EE
:10485000BAFF284600F01EFA0646304606B070BD84
:104860000000108070B586B005460C460026019405
:104870001020029040200390002004904FF48060AC
:10488000059001A92846FFF79EFF41F288321021CA
:10489000284600F0FFF80646304606B070BD70B5F9
:1048A00086B005460C460026019406200290402062
:1048B0000390002004904FF48060059001A92846E1
:1048C000FFF781FF41F288320621284600F0E2F826
:1048D0000646304606B070BD30B585B004460025AA
:1048E000002000900190029003904FF480600490AB
:1048F00069462046FFF767FF204600F0ABF8054603
:10490000284605B030BD30B585B0044600254FF4CB
:10491000D570009008200190402002900020039064
:104920004FF48060049069462046FFF74CFF204614
:1049300000F030FA0546284605B030BDF0B585B028
:10494000064614461D46002700940720019040208B
:104950000290002003904FF4806004906946304636
:10496000FFF731FF41F288320721304600F092F81C
:104970000746384605B0F0BD30B585B00446002581
:104980000020009002200190C0200290002003909F
:104990004FF48060049069462046FFF714FF2046DC
:1049A00000F04AF90546284605B030BD70B586B01E
:1049B00005460C460026019409200290C020039071
:1049C000002004904FF48060059001A92846FFF76D
:1049D000FAFE284600F030F90646304606B070BDB3
:1049E00030B585B0044600250020009033200190AA
:1049F00040200290002003904FF4806004906946AC
:104A00002046FFF7E0FE41F288323321204600F0D5
:104A100041F80546284605B030BD70B586B005465C
:104A20000C460026002001900320029040200390B5
:104A3000002004904FF48060059001A92846FFF7FC
:104A4000C2FE22460321284600F04CF906463046B5
:104A500006B070BD01460E480068C0084FF47A7376
:104A6000B0FBF3F041F2883300FB03F200BF10000B
:104A7000A2F1010202D14FF000407047486B00F0F4
:104A800080000028F3D040F2FF5088630020F4E754
:104A90001C0000202DE9F04105460E4617466448EB
:104AA0000068C0084FF47A71B0FBF1F000FB07F822
:104AB00000BF5FEA0800A8F1010803D14FF00040F1
:104AC000BDE8F081686B00F045000028F1D0686B0C
:104AD00000F0040010B10420A863F1E7686B00F057
:104AE000010010B10120A863EAE72846FFF734FE71
:104AF000B04201D00120E3E740F2FF50A86300215B
:104B00002846FFF732FE04464A48204008B90020F4
:104B1000D6E704F00040B0F1004F02D14FF0007032
:104B2000CEE704F08040B0F1804F01D14020C7E7CC
:104B300004F00050B0F1005F01D18020C0E704F024
:104B40008050B0F1805F02D14FF48070B8E704F07C
:104B50000060B0F1006F02D14FF40070B0E704F0D4
:104B60008060B0F1806F02D14FF48060A8E704F05C
:104B70008070B0F1807F02D14FF40060A0E704F4B0
:104B80000000B0F5000F02D14FF4805098E704F414
:104B90008000B0F5800F02D14FF4005090E704F48C
:104BA0000010B0F5001F02D14FF4804088E704F4F4
:104BB0008010B0F5801F02D14FF4004080E704F46C
:104BC0008020B0F5802F02D14FF4003078E704F454
:104BD0000030B0F5003F02D14FF4802070E704F4BC
:104BE0008030B0F5803F02D14FF4002068E704F434
:104BF0000040B0F5004F02D14FF4801060E704F49C
:104C00008040B0F5804F02D14FF4001058E704F413
:104C10000050B0F5005F02D14FF4800050E704F07F
:104C20000800082801D100054AE74FF4803047E723
:104C30001C00002008E0FFFD014615480068C00880
:104C40004FF47A73B0FBF3F041F2883300FB03F2C8
:104C500000BF1000A2F1010202D14FF000407047E6
:104C6000486B00F045000028F3D0486B00F00400CA
:104C700010B104208863F2E7486B00F0010010B126
:104C800001208863EBE740F2FF5088630020E6E7ED
:104C90001C000020014612480068C0084FF47A73D7
:104CA000B0FBF3F041F2883300FB03F200BF1000C9
:104CB000A2F1010202D14FF000407047486B00F0B2
:104CC00045000028F3D0486B00F0040010B1042028
:104CD0008863F2E740F2FF5088630020EDE70000B0
:104CE0001C0000202DE9F04104460E4617462848D6
:104CF0000068C0084FF47A71B0FBF1F041F28831DE
:104D000000FB01F800BF5FEA0800A8F1010803D129
:104D10004FF00040BDE8F081606B00F045000028D6
:104D2000F1D0606B00F0040010B10420A063F1E743
:104D3000606B00F0010010B10120A063EAE720469B
:104D4000FFF70AFDB04201D00120E3E740F2FF5037
:104D5000A06300212046FFF708FD054605F46040EA
:104D600018B9280C38800020D4E705F48040B0F54D
:104D7000804F02D14FF40050CCE705F40040B0F56D
:104D8000004F02D14FF48050C4E74FF48030C1E7A8
:104D90001C000020014614480068C0084FF47A73D4
:104DA000B0FBF3F041F2883300FB03F200BF1000C8
:104DB000A2F1010202D14FF000407047486B00F0B1
:104DC00045000028F3D0486B00F0040018B14020E3
:104DD00088630420F1E7486B00F0400008B14020F0
:104DE00088630020E9E700001C0000202DE9F04165
:104DF00088B004460E460025FDF7DCFA8046002701
:104E000000200090019008212068FFF72BFD054647
:104E10001DB1284608B0BDE8F0815022125B110494
:104E20002068FFF7E4FC05460DB12846F2E74FF095
:104E3000FF3002900820039030200490022005905B
:104E4000002006900120079002A92068FFF76EFC61
:104E50002068FFF7C5FD05460DB12846DAE713E0E7
:104E60002068406B00F4001028B12068FFF7A7FC11
:104E70004DF827007F1CFDF79DFAA0EB0800401CB1
:104E800010B94FF00040C5E72068406B40F22A415E
:104E900008400028E4D02068406B00F0080018B1FA
:104EA000082021688863B5E72068406B00F00200A5
:104EB00018B1022021688863ACE72068406B00F0DD
:104EC000200018B1202021688863A3E740F2FF503A
:104ED0002168886300980006009901F47F4140EA48
:104EE0000120009901F47F0140EA1120009940EA75
:104EF0001160706001980006019901F47F4140EA59
:104F00000120019901F47F0140EA1120019940EA52
:104F10001160306000207DE730B58FB00446002579
:104F2000012003902068FFF71BFC18B94FF0806048
:104F30000FB030BD606C03281BD02068FFF71CFD4C
:104F400005460DB12846F3E700212068FFF70DFC68
:104F5000606704212068FFF708FCA067082120682B
:104F6000FFF703FCE0670C212068FFF7FEFB8021C0
:104F70000851606C032807D003A92068FFF74DFD96
:104F800005460DB12846D3E7606C032820D0BDF854
:104F90000C1021655022125B11042068FFF706FDFA
:104FA00005460DB12846C3E700212068FFF7DDFB69
:104FB000606604212068FFF7D8FBA06608212068FE
:104FC000FFF7D3FBE0660C212068FFF7CEFB2067DC
:104FD00004212068FFF7C9FB010DE16404A9204604
:104FE000FEF725FB5020005B01040A4600232068E1
:104FF000FFF7A4FC05460DB1284699E7D4E9041251
:10500000A069CDE90012029094E80F00FFF7B8FB09
:1050100000208DE7F8B50446002000900026002708
:1050200000252068FFF758FC05460DB12846F8BD5D
:105030002068FFF768FC05466DB30021A16425E0F8
:105040000098411C00914FF6FF71884202D14FF049
:105050008070ECE700212068FFF7C9FB054615B119
:105060004FF08050E3E700212068FFF7DDFB0546A5
:1050700015B14FF08050DAE700212068FFF775FB8B
:105080000646012080EAD67080F00107002FD7D0B5
:105090000020606433E00121A16424E00098411CF9
:1050A00000914FF6FF71884202D14FF08070BEE749
:1050B00000212068FFF79BFB05460DB12846B6E7A7
:1050C0004FF080412068FFF7AFFB05460DB1284641
:1050D000ADE700212068FFF748FB0646012080EA83
:1050E000D67080F00107002FD8D006F08040B0F1D4
:1050F000804F02D10120606401E000206064002044
:1051000095E77CB504460020009001900025002121
:105110002068FFF72AFB00F00070B0F1007F02D199
:105120004FF400607CBD69462046FFF75FFE0546F0
:105130000DB12846F6E7019800F4803098B150226E
:10514000125B11042068FFF752FB05460DB128469B
:10515000E8E700212068FFF7A2FB05460DB12846CD
:10516000E0E70020DEE74FF08060DBE77CB5044637
:10517000002000900190002500212068FFF7F5FA3B
:1051800000F00070B0F1007F02D14FF400607CBDF0
:1051900069462046FFF72AFE05460DB12846F6E788
:1051A000019800F4802098B15022125B110420680D
:1051B000FFF71DFB05460DB12846E8E702212068F0
:1051C000FFF76DFB05460DB12846E0E70020DEE75E
:1051D0004FF08060DBE770B504460D46164624B1FB
:1051E000012C06D0022C0CD107E0284600F03EF935
:1051F00007E0284600F054F903E0284600F046F89E
:1052000000BF00BF2846FBF79BF880B270BD0000CE
:105210002DE9F04180460D4616461F4600242A46D9
:10522000314614A0FCF702F8804608F10100F0B105
:1052300000BF1AE056F824000EA1FBF788F890B9D9
:1052400057F82400FBF7E5F868B157F82400FBF79E
:10525000E0F800EBC00101EB00104FF6FF7101EA2E
:10526000800006490880601CC4B2AC42E2DB04A0A6
:10527000BDE8F0817261746500000000120000203A
:105280002F7379732E68746D6C00000010B504469E
:105290000B48007820B90BA1204600F07DFD0EE000
:1052A00007480078012806D10848028808A120464E
:1052B00000F072FD03E009A1204600F06DFD10BD75
:1052C000100000204C4544BFAA000000120000203E
:1052D0004C4544C9C1A3BA25646D73004C4544C311
:1052E000F000000010B5FDF76BF813F091FD10BD54
:1052F00010B59EB000BF002000903C48006840F010
:1053000080503A4908600846006800F080500090DC
:1053100000BF00BF00BF002000903548006840F487
:105320004040334908600846006800F4404000905F
:1053300000BF00BF012012900004139002201890BB
:105340004105199119211A914FF4A8711B9102215D
:105350001C9104211D9112A8FDF7CAFE20B140F254
:105360009F1124A000F006FDFDF744FB20B14FF48F
:10537000D37120A000F0FEFC0F200D9002200E90B3
:1053800000200F904FF4A05010904FF480501190D7
:1053900005210DA8FDF738FD20B14FF4DA7115A0F5
:1053A00000F0E8FC0820019064200590022107919C
:1053B00000200A9001A8FDF76FFB20B140F2BD115B
:1053C0000CA000F0D7FCFDF707FE4FF47A71B0FB9C
:1053D000F1F42046FEF746FB0420FEF72FFB0022E7
:1053E0001146501EFDF7E4F91EB010BD40380240D2
:1053F000007000402E2E5C557365725C5372635CC6
:105400006D61696E2E6300001448006840F47000FE
:10541000124908601248006840F001001049086015
:1054200000200F49083108600D4800680D49084008
:105430000B4908600C48091D0860081F006820F42B
:105440008020091F0860002005490C3108604FF0DA
:1054500000600249803908607047000088ED00E074
:1054600000380240FFFFF6FE103000242DE9F04125
:1054700005460024FBF724FF04466420B4FBF0F14A
:1054800000FB1146B4FBF0F733463A4602A128462A
:1054900000F082FCBDE8F08125642E2564A1E600C1
:1054A0002DE9F04105460024FCF784FF04464FF443
:1054B0007A70B4FBF0F100FB1146B4FBF0F7334611
:1054C0003A4603A1284600F067FCBDE8F0810000E1
:1054D00025642C256400000070B50546AC6B0020E7
:1054E000E085E0842046FEF7D7FA70BD0168C96800
:1054F00021F490710268D1600168496921F00101CD
:1055000002685161202180F83A10704710B50446B6
:105510002068C06820F040002168C860202084F81E
:1055200039002046FEF7AAFC002010BD70B50446E5
:1055300094F83A00222844D1A068B0F5805F13D1D6
:10554000A56A206940B920684068C0F30800288037
:10555000A06A801CA06219E020684068C0B2288060
:10556000A06A401CA06211E0206938B92068406838
:10557000C1B2A26A501CA062117007E020684068A6
:1055800000F07F01A26A501CA0621170E08D401EE5
:1055900080B2E08598B92068C06820F490702168D6
:1055A000C8602068406920F001002168486120201F
:1055B00084F83A002046FEF7B1FB002070BD0020C1
:1055C000FCE70220FAE700002DE9F041044600253F
:1055D0002068056925F44055E068054320680561A9
:1055E0002068C56849F20C6085432169A0680843BA
:1055F00061690843E169084305432068C560206884
:10560000456925F44075A069054320684561E06956
:10561000B0F5004F7ED1C4492068884203D0C34909
:10562000206888425DD1FDF7F3FC00EBC00101EB7F
:10563000001061684900B0FBF1F06421B0FBF1F0AB
:105640000601FDF7E5FC00EBC00101EB001061680D
:105650004900B0FBF1F7FDF7DBFC00EBC00101EB0B
:10566000001061684900B0FBF1F06421B0FBF1F07B
:1056700000EBC00101EB0010A7EB8000322101EB31
:10568000C0006421B0FBF1F000F0F80006EB40062A
:10569000FDF7BEFC00EBC00101EB001061684900A2
:1056A000B0FBF1F7FDF7B4FC00EBC00101EB00101B
:1056B00061684900B0FBF1F06421B0FBF1F000EB50
:1056C000C00101EB0010A7EB8000322101EBC0000C
:1056D0006421B0FBF1F000F00700304421688860DD
:1056E00020E1FDF77FFC00EBC00101EB00106168D9
:1056F0004900B0FBF1F06421B0FBF1F00601FDF7C9
:1057000071FC00EBC00101EB001061684900B0FBC7
:10571000F1F700E045E0FDF765FC00EBC00101EBAF
:10572000001061684900B0FBF1F06421B0FBF1F0BA
:1057300000EBC00101EB0010A7EB8000322101EB70
:10574000C0006421B0FBF1F000F0F80006EB400669
:10575000FDF748FC00EBC00101EB00106168490057
:10576000B0FBF1F7FDF73EFC00EBC00101EB0010D0
:1057700061684900B0FBF1F06421B0FBF1F000EB8F
:10578000C00101EB0010A7EB8000322101EBC0004B
:105790006421B0FBF1F000F007003044216888601C
:1057A000C0E061492068884203D06049206888428F
:1057B0005CD1FDF72DFC00EBC00101EB001061682E
:1057C0008900B0FBF1F6FDF723FC00EBC00101EB13
:1057D000001061688900B0FBF1F06421B0FBF1F0CA
:1057E00000EBC00101EB0010A6EB8000322101EBC1
:1057F00000106421B0FBF1F000F0F006FDF708FCAA
:1058000000EBC00101EB001061688900B0FBF1F012
:105810006421B0FBF1F006EB0016FDF7F9FB00EB9D
:10582000C00101EB001061688900B0FBF1F7FDF7E2
:10583000EFFB00EBC00101EB001061688900B0FBD9
:10584000F1F06421B0FBF1F000EBC00101EB0010BE
:10585000A7EB8000322101EB00106421B0FBF1F0D6
:1058600000F00F003044216888605BE0FDF7BAFB70
:1058700000EBC00101EB001061688900B0FBF1F69C
:10588000FDF7B0FB00EBC00101EB0010616889007F
:10589000B0FBF1F06421B0FBF1F000EBC00101EBD3
:1058A0000010A6EB8000322101EB00106421B0FB58
:1058B000F1F000F0F006FDF795FB00EBC00101EB05
:1058C000001061688900B0FBF1F06421B0FBF1F0D9
:1058D00006EB0016FDF786FB00EBC00101EB0010A4
:1058E00061688900B0FBF1F7FDF77CFB00EBC001BC
:1058F00001EB001061688900B0FBF1F06421B0FB9E
:10590000F1F000EBC00101EB0010A7EB80003221A9
:1059100001EB00106421B0FBF1F000F00F00304407
:1059200021688860BDE8F08100100140001401404A
:10593000014691F8390021282CD18868B0F5805FA4
:105940000FD10A6A1088C0F308000B685860086914
:1059500018B9086A801C086209E0086A401C0862DD
:1059600005E00B6A581C086218780B685860C88CF0
:10597000401E80B2C88458B90868C06820F0800012
:105980000B68D8600868C06840F040000B68D860B9
:10599000002070470220FCE72DE9F04104460D4647
:1059A00017469846069E21E0701CF8B12EB1FCF710
:1059B00001FDA0EB0800B04218D92068C06820F4AF
:1059C000D0702168C8602068406920F0010021681B
:1059D0004861202084F8390084F83A0000BF002094
:1059E00084F8380000BF0320BDE8F081206800681B
:1059F0002840A84201D1012000E00020B842D3D0C5
:105A00000020F1E710B50248FEF748F810BD00008D
:105A1000A80300200FB410B504460898012816D139
:105A2000A06B20F48030A063E06815490840E06076
:105A3000E06820F44010E0600F98012803D1E0688E
:105A400040F48010E060204600F01CF809E0E068B7
:105A500040F04000E060204600F014F84FF4803041
:105A6000A0630698012807D1A06840F00600A06056
:105A7000A06840F02000A060002010BC5DF814FB7E
:105A8000BFFFBDFF0146002200BF501C02460F4B66
:105A9000984201D903207047086900F000400028AF
:105AA000F3D00022086940F00100086100BF501CDB
:105AB0000246064B984201D90320ECE7086900F042
:105AC00001000028F3D100BFE5E70000400D03000E
:105AD00010B5044640F60400005940F0020140F6BB
